:100000000C9434000C94320F0C94980E0C94510004
:100010000C9451000C9451000C9451000C9451001C
:100020000C9451000C9451000C9451000C9451000C
:100030000C9451000C9451000C94080F0C94510036
:100040000C9451000C9451000C9451000C945100EC
:100050000C9451000C9451000C9451000C945100DC
:100060000C9451000C94510011241FBECFEFD8E026
:10007000DEBFCDBF11E0A0E0B1E0EAE7FFE102C0E2
:1000800005900D92A430B107D9F724E0A4E0B1E0C7
:1000900001C01D92A130B207E1F70E94D50B0C946C
:1000A000BB0F0C940000AF92BF92CF92DF92EF9201
:1000B000FF920F931F93CF93DF936C018B017A0113
:1000C000211104C046175707A8F426C04617570742
:1000D00018F1EB01FE01E01BF10BEE7FEC0DFD1DB5
:1000E00060817181CE010E94A50F2296EC16FD065B
:1000F00088F712C0EB015E01A01AB10AE894A0F8DB
:10010000AC0CBD1CCE010E948D0FF5019183808344
:100110002296EC16FD0678F7DF91CF911F910F9193
:10012000FF90EF90DF90CF90BF90AF900895EF9247
:10013000FF920F931F93CF93DF93EB018A0121115D
:1001400004C04617570788F41CC046175707C8F065
:10015000E82EF92EF70161917F01CE010E94930FE5
:1001600021960C171D07B0F70CC0E82EF92ECE0112
:100170000E94850FF70181937F0121960C171D07BF
:10018000B0F7DF91CF911F910F91FF90EF900895FD
:10019000EF92FF920F931F93CF93DF937B018A011E
:1001A00034E6239FE0011124AE01445F5F4FBE019E
:1001B0006F5F7F4F21E00E945300AE01445D5F4FAF
:1001C000BE01635F7F4F21E0C7010E945300AE0173
:1001D000425A5F4FBE01675A7F4F21E0C8010E941B
:1001E0009700DF91CF911F910F91FF90EF900895AD
:1001F000EF92FF920F931F93CF93DF937B018A01BE
:1002000034E6239FE0011124AE01485C5F4FBE013C
:10021000635D7F4F21E00E945300AE01485A5F4F5B
:10022000BE01675C7F4F21E0C7010E945300AE0111
:100230004C595F4FBE01615A7F4F21E0C8010E94B7
:100240009700DF91CF911F910F91FF90EF9008954C
:10025000EF92FF920F931F93CF93DF937B018A015D
:1002600034E6239FE0011124AE01445F5F4FBE01DD
:100270006F5F7F4F20E00E945300AE01445D5F4FEF
:10028000BE01635F7F4F20E0C7010E945300AE01B3
:10029000425A5F4FBE01675A7F4F20E0C8010E945B
:1002A0009700DF91CF911F910F91FF90EF900895EC
:1002B000EF92FF920F931F93CF93DF937B018A01FD
:1002C00034E6239FE0011124AE01485C5F4FBE017C
:1002D000635D7F4F20E00E945300AE01485A5F4F9C
:1002E000BE01675C7F4F20E0C7010E945300AE0152
:1002F0004C595F4FBE01615A7F4F20E0C8010E94F8
:100300009700DF91CF911F910F91FF90EF9008958B
:100310002F923F924F925F926F927F928F929F9215
:10032000AF92BF92CF92DF92EF92FF920F931F9303
:10033000CF93DF9300D000D01F92CDB7DEB73A0144
:100340002FEF621A720AC0900501D09006016C145A
:100350007D0408F0CCC06114710479F1412C512C5A
:1003600020E030E0A12CB12CA1E0B0E0812C912C58
:10037000EFE0F0E07F01E41AF50A8B01FD01022EA7
:1003800002C0EE0FFF1F0A94E2F7E823F923BD0134
:10039000EF2B11F4682D792D4E0C5F1C02C0660FF7
:1003A000771F4A94E2F7A62AB72A2F5F3F4F290109
:1003B0002615370518F3B80102C0A12CB12CC601CF
:1003C0008619970909F496C02EE030E0F901E41B84
:1003D000F50BAF01AFE0B0E0A81BB90B8FE090E0E8
:1003E000E1E0F0E000E010E09F01082E02C0220FE3
:1003F000331F0A94E2F77901E622F7229F01EF28E2
:1004000011F4202F312F042E02C0220F331F0A9423
:10041000E2F7A22AB32A0197415051098A179B0794
:1004200019F768C0A901082E02C0440F551F0A948D
:10043000E2F74A215B211D83452B09F40D83A601B8
:10044000480F591F490102C0880C991C4A95E2F7D0
:10045000A40146235723912E452B09F4902E019792
:100460004D8149110AC08E179F07E1F689809A8055
:10047000CD01AB30B10559F502C089809A80119643
:1004800082E0880E911CA630B105E1F0F301819164
:1004900091913F01009799F3F40160817181AB0163
:1004A00044215521EE2D452B09F4E0E03E12E7CF23
:1004B0004FE050E0481B590B822D9F2D9A82898274
:1004C000FA01D1CF6B807C808BE090E002C06B8022
:1004D0007C80FC01EE0FFF1FE95FFE4F81E090E0A2
:1004E000208131816216730650F580E028C081E0DA
:1004F00090E025C0C601019721E030E0290102C04B
:10050000440C551C8A95E2F787E091E063E171E0C5
:10051000A0E0B0E03B2C331C3324331CEE24E394E6
:100520000F2EFEE02F2EF02DF12CF0E1CF1AD10886
:100530001E2D00E04B017C826B823C01A7CF0F9007
:100540000F900F900F900F90DF91CF911F910F910F
:10055000FF90EF90DF90CF90BF90AF909F908F90E3
:100560007F906F905F904F903F902F9008952F92C3
:100570003F924F925F926F927F928F929F92AF9233
:10058000BF92CF92DF92EF92FF920F931F93CF9380
:10059000DF93CDB7DEB7E6970FB6F894DEBF0FBE98
:1005A000CDBF7CA76BA73EA72DA7E42FF52F26E094
:1005B00030E01A8E198E40E050E061917191460F43
:1005C000571F2150310921153105B9F75A8F498F2D
:1005D000898B9A8B1AA619A6A12CB12C22E030E0A7
:1005E0003D832C831F861E861C8A1B8A0F2EFBE0F0
:1005F0008F2E912CF02D66246394712C3BE039A34F
:100600001AA269AA7AAA332433944FE04BAB1CAAEE
:100610001DA21EA23C8750E05D876BA27FA6232C03
:10062000412C4F8F80E088A390E0988BA0E0ACA392
:1006300048AA250131C24C845D84EC81FD81EF2BF9
:1006400009F0D1C0FF85FF1FFF27FF1FF983760147
:10065000C601880F991FFC01ED5EFE4FA081B1819C
:100660002A813B812A233B23432D232B09F440E09D
:100670002981241367C19C01295F3E4FF901019034
:10068000F081E02DFF83EE839501205F3F4FA901AC
:100690004E1B5F0B5EAB4DAB4031510598F5E989C0
:1006A000FA89008111814E855F856F8D78A1262F93
:1006B000372FF986E8867D01ABA1BCA1F301022E9C
:1006C00002C0EE0FFF1F0A94E2F7E023F1238A2F06
:1006D000982DEF2B11F488899B2F6A197B0902C092
:1006E000880F991F6A95E2F7482B592B2150310941
:1006F000B901EDA9FEA92E173F0700F7D701E8843D
:10070000F98402C04E855F852E813F81232BD1F174
:10071000232D8A859B8584239523892B09F420E04A
:100720003981321335C18B8D9C8D2D8D3E8D0D8978
:100730001E896E817F81061B170BF8011FC0B30154
:10074000082E02C0660F771F0A94E2F76423752310
:10075000022D672B09F4092DB301022E02C0660F8A
:10076000771F0A94E2F76A237B23122D672B09F483
:10077000192D01972150310901130AC18E179F07C6
:10078000F1F601C072017BE0E716F10409F400C143
:100790009701ED88FE88C7010196AC014A0D5B1DEB
:1007A000220F331FF901E95FFE4F808191817A01A9
:1007B000E81AF90AEBA5FCA5E20FF31F80819181ED
:1007C000EB89FC89EE0FFF1FADA5BEA5EA0FFB1F4D
:1007D00091838083EB89FC893196FC8BEB8BF2E073
:1007E000FC831D826DC1A989BA890D90BC91A02D91
:1007F000BEABADABCE82D8867601EE0CFF1CF70106
:10080000ED5EFE4F008111818A859B858A239B23A3
:10081000232D892B09F420E0332D8A819B818023AD
:100820009123892B09F430E023138CC0BF88A88C56
:10083000EFA1F8A5628173814F89588D8DA99EA97A
:100840000E9488019D838C83892BE9F1F701E95F80
:10085000FE4F408151814115510509F46FC08B8DC8
:100860009C8D2D8D3E8D6F89788D641B750BADA988
:10087000BEA91FC0A301082E02C0440F551F0A9431
:10088000E2F74A235B23F22D452B09F4F92DA3014E
:10089000022E02C0440F551F0A94E2F74023512351
:1008A000E22D452B09F4E92D019721503109FE1362
:1008B00002C186179707F1F64E805884ADA0BEA0FE
:1008C000AE86BF863FC0ED88FE88CDA8DEA81B2D72
:1008D0000A2D57013FEFA31AB30AA114B10409F47A
:1008E00062C0412F502F6BA97CA91E861F862E85C2
:1008F0003F857601A9A9BAA91DA10EA1F301042E75
:1009000002C0EE0FFF1F0A94E2F7EE21FF218A2FAB
:100910009B2FEF2B11F4812F902F062E02C0880FF2
:10092000991F0A94E2F7282B392B41505109615045
:1009300071094F3F8FEF580709F73AC0ADA0BEA02D
:10094000AE86BF86BBE04B16510411F1ED88FE88E0
:100950002B893C892F5F3F4FF201EE0FFF1F4BA504
:100960005CA5E40FF51F80819181EB89FC89EE0F76
:10097000FF1F6DA57EA5E60FF71F91838083898DEC
:100980009A8D8217930708F466C03C8B2B8B20C08E
:100990009FEFC91AD90AA6E0CA16D10409F04BCEB6
:1009A000ED88FE888DC0E12CF12C1E861F8604C0C8
:1009B0003F872E87E12CF12CE98DFA8D2B893C891C
:1009C000E217F30708F453C03BE04316510461F00B
:1009D000C7010196F201EE0FFF1FE95FFE4F208174
:1009E00031817C01E21AF30A41E0E41AF108FF20A8
:1009F000BCF149A05AA0698D7A8D8B899C89861794
:100A00009707D0F680910501909106019C01215035
:100A10003109D30102C0AA0FBB1F2A95E2F7BB839D
:100A2000AA83F3010E2C02C0EE0FFF1F0A94E2F717
:100A3000FB87EA87C12CD12CF88EEF8A97012150D1
:100A400031093C8F2B8FAC01425051095E8F4D8F85
:100A5000FE8AED8AF2CD420125013C8B2B8B09C029
:100A600025010F2EFBE08F2EF02D912C02C04201AC
:100A700025016B897C89898D9A8D8617970778F176
:100A8000A9A5BAA51196BAA7A9A7E989FA893296A4
:100A9000FA8BE98B509719F10F2EFFE0AF2EF02D56
:100AA000B12C29893A8938A72FA375015201240155
:100AB00098A88FA4A0CFADA0BEA0AE86BF8668CFF9
:100AC0006B897C89898D9A8D8617970708F08CCF62
:100AD00025010F2EFBE08F2EF02D912CCACFE6962C
:100AE0000FB6F894DEBF0FBECDBFDF91CF911F913F
:100AF0000F91FF90EF90DF90CF90BF90AF909F90BD
:100B00008F907F906F905F904F903F902F900895BF
:100B10002F923F924F925F926F927F928F929F920D
:100B2000AF92BF92CF92DF92EF92FF920F931F93FB
:100B3000CF93DF93CDB7DEB769970FB6F894DEBFDA
:100B40000FBECDBF7F876E8767E071E00F2EF3E1A8
:100B5000EF2EF1E0FF2EF02D1B8A1A8AFB0100E038
:100B600010E0219131910217130708F48901EE1565
:100B7000FF05B9F71B8B0A8B109306010093050143
:100B8000A42EB52E2AEA30E01A8619861D861C8608
:100B90001B8600E110E018870F838B839C836D8395
:100BA0007E83512C412C2A883B8811E0211A310880
:100BB00088248394912C782C692C59824A824A8902
:100BC0005B895D8B4C8BD5016D917D915D016115CC
:100BD000710509F46EC14B815C81ED81FE81852D2B
:100BE000942DDA017901019111912D913D91A90185
:100BF0004A5051096417750708F455C1265F3F4FE5
:100C00002617370708F44FC19701EF81F885E01BDD
:100C1000F10B32F44A895B89452B09F068C084C026
:100C2000FC01EE0FFF1FE95FFE4F4081518141152E
:100C3000510509F455C0AB85BC85AA0FBB1F6E8555
:100C40007F85A60FB71F5E8A4F8A652D742D8C0194
:100C5000000F111FF801ED5EFE4F6F01EF80F88469
:100C6000F1E0EF1AF108095F1E4F398B288BEE89EE
:100C7000FF89BF8BAE8B198F088F8C0191012E1BC2
:100C80003F0BA40102C0440F551F2A95E2F79A01B9
:100C9000D6018D919C9128233923872D962D232BC6
:100CA00011F489819A8197012E1B3F0B02C0880F96
:100CB000991F2A95E2F7EE89FF8920813181822BE5
:100CC000932B918380836F5F7F4FFB01A88DB98D3C
:100CD0004D915C916417750788F228893989C8019C
:100CE000EF81F885E41BF50BF887EF831DC0452DD8
:100CF000542DDD84E984FA84B52DA42DBA01601B3E
:100D0000710BE617F70721F4EB2EFA2EDD24D394AE
:100D10004F5F5F4FB42FA52F6C897D89461757070A
:100D200069F7DD86FA86E9867D85772309F4C1C0F7
:100D3000A985BA85AB2B09F44FC0AB85BC85AA0F3A
:100D4000BB1FEE85FF85AE0FBF1FC984DA84588AAA
:100D5000498A652D742DAC01440F551F8A010D5E23
:100D60001E4F78010F81188501501109E889F98912
:100D7000B887AF83AC01F98AE88A790191012E1B0B
:100D80003F0BC40102C0880F991F2A95E2F79C010E
:100D9000A889B9898D919C9128233923872D962D77
:100DA000232B11F489819A8198012E1B3F0B02C0DD
:100DB000880F991F2A95E2F7EF81F885208131810C
:100DC000822B932B918380836F5F7F4FFB016C1588
:100DD0007D05A1F69701CA010B851C850F5F1F4F8A
:100DE0001C870B8769857A85FC01EE0FFF1FE95F81
:100DF000FE4F408151816417750708F049C0D80142
:100E0000AA0FBB1FEE84FF84EA0EFB1EFB01AC01A0
:100E1000440F551FCA018D5E9E4F8B01015F1F4F0E
:100E2000495F5E4F6901F886EF827C01598B488BE0
:100E300091012E1B3F0BA40102C0440F551F2A95A0
:100E4000E2F79A01D7018D919C9128233923872DB0
:100E5000962D232B11F489819A8198012E1B3F0B2B
:100E600002C0880F991F2A95E2F7EF81F88520814B
:100E70003181822B932B918380836F5F7F4FFB01A6
:100E8000A889B9894D915C916417750788F296011C
:100E900009851A85005F1F4FF801E41BF50BF887E1
:100EA000EF831D8606C001968630910509F09BCE22
:100EB0009701215031092115310509F084CE699639
:100EC0000FB6F894DEBF0FBECDBFDF91CF911F915B
:100ED0000F91FF90EF90DF90CF90BF90AF909F90D9
:100EE0008F907F906F905F904F903F902F900895DC
:100EF0002F923F924F925F926F927F928F929F922A
:100F0000AF92BF92CF92DF92EF92FF920F931F9317
:100F1000CF93DF93CDB7DEB7AA970FB6F894DEBFB5
:100F20000FBECDBF1C018E010F5F1F4F9E01235FBF
:100F30003F4F63E171E047E051E069017A01CB0185
:100F4000F801590111921192D5011D925D01DC0148
:100F50001D921D92CD01D7011D921D927D01EC15B0
:100F6000FD0581F710920601109205011C8A1B8A6B
:100F700081E090E09E8B8D8B82E090E0988F8F8B4C
:100F800083E090E09A8F898F84E090E09C8F8B8F34
:100F900085E090E09E8F8D8F0F2EFAE08F2E912CA2
:100FA000F02D712C612C29A33AA30BA31CA32E01B5
:100FB000BFE14B0E511C6DA37EA34FA358A738A2CF
:100FC0002F8E2FEF821A920AE22DF32D2BE030E0C4
:100FD000872D962D6FEF7FEF41915191411551056E
:100FE00031F04617570718F4282F392FBA01019608
:100FF0008630910589F7E22DF32D0F2EFBE0AF2E01
:10100000F02DB12C872D962DAFEFBFEF419151916F
:101010004115510541F08217930729F04A175B07E4
:1010200010F45C01DA0101968630910579F7D90157
:10103000AA0FBB1F4F8D58A1A40FB51FF501EE0FCE
:10104000FF1FE40FF51F4D915C91119780819181F5
:10105000840F951F8D939C9311821082A9A1BAA130
:10106000FE017396872D962D6901CC0CDD1C41E0A5
:1010700050E04C0F5D1FC40ED51E52E1C50ED11CB1
:101080007501EE0CFF1C41E050E04C0F5D1FE40EBB
:10109000F51E52E1E50EF11CBAA7A9A728173907DA
:1010A00011F18A159B05F9F0AF0100811181D6017C
:1010B0006D917C910617170731F4918280826CE460
:1010C000A9A5BAA56C93DA010D911C91D7016D9178
:1010D0007C910617170739F4DA018D929C9242E54C
:1010E000A9A5BAA54C9301963296A9A5BAA51196C1
:1010F000BAA7A9A78630910589F6EDE0F0E0EC0FDC
:10110000FD1FE20FF31FBCE4B083EDE0F0E0EC0F55
:10111000FD1FEA0DFB1D42E54083F501EE0FFF1FA9
:1011200081E090E08C0F9D1FE80FF91F938A828A5F
:10113000D901AA0FBB1FA80FB91F53969C928E927C
:1011400052978D919C91408151814817590760F4C5
:10115000F501EE0FFF1FA1E0B0E0AC0FBD1FEA0FDD
:10116000FB1F918380830EC08417950758F4F90103
:10117000EE0FFF1F81E090E08C0F9D1FE80FF91F1D
:1011800051834083F901EE0FFF1FA1E0B0E0AC0FE7
:10119000BD1FEA0FFB1F808191810196918380839F
:1011A000F501EE0FFF1FEA0FFB1F80819181019671
:1011B00091838083ABA1BCA1FE017396872D962DF0
:1011C000672D762D2817390779F0A816B90661F032
:1011D000408151814815590539F44D915C91119721
:1011E0006417750708F4BA01019632961296863094
:1011F000910541F741E050E002C0440F551F6A9548
:10120000E2F7BA0189A19AA12DA13EA1AFA1B8A58B
:10121000FE0173968D014191519148155905A1F434
:10122000DC014C91423541F4D9014D915C9111970B
:10123000462B572B4D935C93D8014D915C911197A0
:101240004F5F5F4F4D935C930E5F1F4F2E5F3F4F7D
:101250000196E415F505F9F6E22DF32D86E090E010
:10126000472D562D21913191232B11F04F5F5F4F68
:1012700001970097B9F74130510509F0A2CE2091AE
:1012800005013091060143E151E0E7E0F1E0819191
:1012900091912817390708F49C01E417F507B9F76D
:1012A0003093060120930501AA960FB6F894DEBF8D
:1012B0000FBECDBFDF91CF911F910F91FF90EF90A7
:1012C000DF90CF90BF90AF909F908F907F906F9066
:1012D0005F904F903F902F90089586B585E085BD33
:1012E0000895F894A89584B7877F84BFE0E6F0E07E
:1012F0008081886180838DE0808378940895F8945C
:10130000A89584B7877F84BFE0E6F0E0808188619C
:1013100080831082789408958DE08093000181E0AD
:1013200090E04FEF480F26B130E0082E02C035950F
:1013300027950A94E2F720FD40930001019686303C
:10134000910579F785E090E029B130E0082E02C0E0
:10135000359527950A94E2F720FD809300010196C8
:101360008830910589F71E9B03C088E080930001B7
:1013700083B190E0880F892F881F990B9195892B55
:1013800019F089E0809300010895CF92DF92EF92E7
:10139000FF920F931F93CF93DF93E2E8F2E0A3E76E
:1013A000B2E08EE892E0119211921D921D92E81720
:1013B000F907C9F760E070E010E000E0C0E9D2E0B2
:1013C000E12CF12CD12CFB01EE0FFF1FE256FD4F5B
:1013D00080819181892B09F44CC0FE010F2EF6E02B
:1013E000CF2EF02DC10E8E2D9F2DDB01AA0FBB1F1E
:1013F000A256BD4F4D915C91119721913191465F5D
:101400005F4F2417350740F44D915C9111974A5076
:1014100051094217530728F01F5F01961C11EACFAC
:101420000CC0FC01EE0FFF1FED58FD4F8081918134
:101430000196918380831D2D1CC01123D1F0802F34
:1014400090E0880F991FFC01ED58FD4F20813181FC
:101450002F5F3F4F318320830F5FFB01EE0FFF1F94
:10146000E256FD4F20813181FC01E057FD4F318371
:1014700020836F5F7F4F6A3A710509F0A4CF60E067
:1014800070E010E000E0C2EFD3E0E12CF12CD12CB1
:10149000FB01EE0FFF1FE15EFE4F80819181892BE2
:1014A00009F44CC0FE010F2EF6E0CF2EF02DC10E38
:1014B0008E2D9F2DDB01AA0FBB1FA15EBE4F4D914C
:1014C0005C91119721913191465F5F4F2417350749
:1014D00040F44D915C9111974A50510942175307BE
:1014E00028F01F5F01961C11EACF0CC0FC01EE0F23
:1014F000FF1FEE57FD4F808191810196918380837C
:101500001D2D1CC01123D1F0802F90E0880F991F52
:10151000FC01EE57FD4F208131812F5F3F4F31831A
:1015200020830F5FFB01EE0FFF1FE15EFE4F208166
:101530003181FC01EE50FC4F318320836F5F7F4F80
:101540006A3A710509F0A4CFDF91CF911F910F91F5
:10155000FF90EF90DF90CF90089580919C02909142
:101560009D028A3A910524F010929D0210929C02ED
:1015700080918E0290918F028A3A910524F0109208
:101580008F0210928E0280918102882309F43DC05F
:10159000B09B3DC01092810210929D0210929C025D
:1015A00010928F0210928E02F89480E090E060EE2C
:1015B0007EE29C01FC01EE0FFF1FE15EFE4F4081C9
:1015C0005181413E5E4238F0FC01EE0FFF1FE15EAB
:1015D000FE4F71836083F901EE0FFF1FE256FD4F4E
:1015E00040815181413E5E4238F0F901EE0FFF1F0C
:1015F000E256FD4F7183608301968A3A9105C9F6E0
:101600000E94C509789481E0089580E0089580E003
:101610000895E09AE89A0895E89808958DE08093F7
:10162000690083E08DBB089589E190E09093C50047
:101630008093C40088E08093C1000895239A10929B
:10164000B2008CE68093B30082E48093B0000895EA
:101650001092B1001B9B03C080E88093B1001092F0
:10166000B2000895DF92EF92FF920F931F93CF93F2
:10167000DF93F894E12CF12CC4E8D0E001EB10E00A
:10168000DD24D394F701EE0FFF1FE15EFE4F2081B2
:101690003181198218828881998182179307D8F342
:1016A000F701EE0FFF1FE256FD4F208131811982B5
:1016B0001882F801D0828881998182179307D8F324
:1016C0000E94280BFFEFEF1AFF0A8AEAE816F104DE
:1016D000C9F67894DF91CF911F910F91FF90EF9011
:1016E000DF900895109285001092840083E080932B
:1016F0008100089581E88093640080E880BF0E94A3
:10170000720B0E941E0B82E080936E000E94140BED
:101710000E940E0B0E940C0B0E94710984B186601E
:1017200084B978940895EF92FF920F931F93CF930B
:10173000DF93F89414B1D7B1CAB1E5B0F8B00BB1EA
:101740001BB818B815B81AB817B814B8E4E6F0E022
:1017500080818A66808385E083BF0E940C0B83B7FB
:10176000817F846083BF83B7816083BF78948895CD
:1017700083B78E7F83BFE4E6F0E080818579808344
:10178000E5B8F8B80BB914B9D7B9CAB90E94140BA7
:101790000E94720B0E941E0B0E940E0BDF91CF91D4
:1017A0001F910F91FF90EF900895CF93DF93CDB7E6
:1017B000DEB7AA970FB6F894DEBF0FBECDBF0E946A
:1017C0007A0B8DE0809301018EE080930201A89551
:1017D0000F2EF0E96F2EF2E07F2EF02D0F2EF2EF9C
:1017E0004F2EF3E05F2EF02D0F2EFCE9AF2EF2E02E
:1017F000BF2EF02D332433948E010F5D1F4F0F2E1B
:10180000FEE88F2EF2E09F2EF02D0FA318A76E0199
:1018100087E2C80ED11C09A71AA78091040180FD98
:1018200017C1A895F8948FE097E20197F1F700C0EF
:1018300000008DE0809300010E948C09A8958091A2
:1018400000018D3008F045C28091040181FF41C242
:10185000E998F894809104018D7F80930401789435
:10186000A895A8959091010180910201981709F41B
:10187000E6C0809101018D3008F0E1C0F894F201DA
:10188000118210821092F5031092F4031092F70364
:101890001092F6031092F9031092F8031092FB03D2
:1018A0001092FA031092FD031092FC0380E090E086
:1018B000FC01EE0FFF1FE15EFE4F118210820196C8
:1018C0008A3A9105A9F7F3011182108210929302CE
:1018D0001092920210929502109294021092970226
:1018E00010929602109299021092980210929B0206
:1018F00010929A0280E090E0FC01EE0FFF1FE2568A
:10190000FD4F1182108201968A3A9105A9F7A89598
:101910008091010180930201A3E7B2E0E2E8F2E0E6
:10192000119211921D921D92E815F905C9F719A29D
:101930001AA21BA21CA21DA21EA2FE013196119288
:101940001192E017F107D9F7A89519A21AA21BA2C4
:101950001CA21DA21EA2FE013196119211920E1719
:101960001F07D9F7A895209102014FA158A5BE01E4
:101970006F5F7F4FC2010E945801A2E8B2E0EFA161
:10198000F8A5819190E08D939D93EC15FD05C9F725
:1019900082E892E00E947807A895A2E8B2E0E9A563
:1019A000FAA5819190E08D939D93CE16DF06C9F73D
:1019B0002FE131E042E852E0B201CE0101960E94EF
:1019C000B702A89519A21AA21BA21CA21DA21EA2B0
:1019D000FE013196119211920E171F07D9F720912F
:1019E00002014FA158A5BE016F5F7F4FC3010E9446
:1019F0002801A3E7B2E0E9A5FAA5819190E08D93D3
:101A00009D93CE16DF06C9F783E792E00E94780720
:101A1000A895A3E7B2E0E9A5FAA5819190E08D939E
:101A20009D93CE16DF06C9F72EE932E043E752E078
:101A3000B301CE0101960E94B702A89578940E9446
:101A40007F090E94320B0E947109E19AE99A41C113
:101A5000A8958EE080930201109200041092FF037B
:101A60001092800210927F020E946D09E998E19A1B
:101A7000A895219A299AF894A89510928102B09A73
:101A8000F301D201119211921D921D92EA15FB05EC
:101A9000C9F7A89580E090E09C01220F331FF9015F
:101AA000E256FD4F11821082F901E15EFE4F118274
:101AB000108201968A3A910579F78DE080930001B2
:101AC000549A5C9AA8958FE39CE90197F1F700C0BE
:101AD0000000189B03C0A8951899FDCFEFE3FCE91F
:101AE0003197F1F700C00000A895E09AE19A789448
:101AF000212C0DC0A8950E948C098FE39CE90197C9
:101B0000F1F700C000000E948C09189912C03091B2
:101B100000018091FF0390910004232D892B09F08F
:101B2000222D222331F0832D3D3008F4822D8111A6
:101B3000E1CFA895809100018D3008F0B2C0F894F3
:101B4000229A2A9A78940E94090BA89518C0A89501
:101B500023B18091FF039091000420FBEE24E0F874
:101B6000F12C8E299F29892B51F08091FF039091B0
:101B700000040196909300048093FF0304C00E9428
:101B8000AD0A882321F38091FF0390910004892BF3
:101B900009F083C0F894A895AFA1B8A5E2E8F2E0F7
:101BA000808132968D93E815F905D1F7FE013196C3
:101BB00011921192E017F107D9F7A89582E892E007
:101BC0000E947807A8954FE151E0BE016F5F7F4FFB
:101BD000C2010E948805A895209100014FA158A537
:101BE000BE016F5F7F4FC2010E94F800A895A2E876
:101BF000B2E0EFA1F8A5819190E08D939D93EC1553
:101C0000FD05C9F72FE131E042E852E0B201CE0113
:101C100001960E94B702A8958FE792E0AFA1B8A500
:101C2000E3E7F2E0208132962D93E817F907D1F728
:101C3000FE013196119211920E171F07D9F783E713
:101C400092E00E947807A8954EE952E0BE016F5FCE
:101C50007F4FC3010E948805A895209100014FA1E4
:101C600058A5BE016F5F7F4FC3010E94C800A895B1
:101C7000A3E7B2E0EFA1F8A5819190E08D939D9349
:101C8000CE16DF06C9F72EE932E043E752E0B30192
:101C9000CE0101960E94B702A89578940E940C0B81
:101CA000A89585B5811115BC2A98299884B1897F9A
:101CB00084B984B7877F84BFE0E6F0E080818861E3
:101CC000808388E080838FEC94E80197F1F700C06F
:101CD0000000A8958DE080930001809301015C983D
:101CE0005498E19AE99A0E940C0BE09A80910401C1
:101CF0008E7F8093040185B1897F85B984B1897F06
:101D000084B9A895189B0DC0F894189B03C0A8959A
:101D10001899FDCFEFE1FEE43197F1F700C0000024
:101D200078940E947F090E94930B0E94710975CDDF
:101D30001F920F920FB60F9211242F933F934F9340
:101D40005F936F937F938F939F93AF93BF93EF9323
:101D5000FF93189B0EC09091040181E08927809326
:101D6000040129982A9884B1897F84B90E940C0BB8
:101D70003EC08091040180FD3AC0809104018260E0
:101D80008093040181E090E04FEF480F26B130E0EE
:101D9000082E02C0359527950A94E2F720FD40935E
:101DA000010101968630910579F785E090E029B12F
:101DB00030E0082E02C0359527950A94E2F720FD01
:101DC0008093010101968830910589F71E9B03C01D
:101DD00088E08093010183B190E0880F892F881FEC
:101DE000990B9195892B19F089E080930101FF915E
:101DF000EF91BF91AF919F918F917F916F915F9183
:101E00004F913F912F910F900FBE0F901F901895FB
:101E10001F920F920FB60F9211242F938F939F93BF
:101E200080917F029091800201969093800280932E
:101E30007F0280917F02909180028336924050F021
:101E40008091FF0390910004019690930004809389
:101E5000FF0315BC9F918F912F910F900FBE0F9094
:101E60001F9018951F920F920FB60F9211242F9367
:101E70003F938F939F93EF93FF9380919C02909158
:101E80009D02892B21F481E086BB809381024A9BCD
:101E900017C080918E0290918F029C012F5F3F4F5F
:101EA00030938F0220938E02209184003091850020
:101EB000FC01EE0FFF1FE256FD4F3183208316C059
:101EC00080919C0290919D029C012F5F3F4F309327
:101ED0009D0220939C022091840030918500FC019A
:101EE000EE0FFF1FE15EFE4F3183208310928500CD
:101EF00010928400FF91EF919F918F913F912F91CC
:101F00000F900FBE0F901F901895F999FECF92BDBC
:101F100081BDF89A992780B50895A8E1B0E042E024
:101F200050E00C94AD0F262FF999FECF92BD81BDE4
:101F3000F89A019700B4021639F01FBA20BD0FB607
:101F4000F894FA9AF99A0FBE08950196272F0E94E5
:101F5000940F0C94930FDC01CB01FC01F999FECF97
:101F600006C0F2BDE1BDF89A319600B40D92415021
:0A1F70005040B8F70895F894FFCF31
:041F7A000D0D0E003B
:00000001FF
